{
  "_format": "hh-sol-artifact-1",
  "contractName": "Tracking",
  "sourceName": "contracts/Tracking.sol",
  "abi": [
    {
      "inputs": [],
      "stateMutability": "nonpayable",
      "type": "constructor"
    },
    {
      "anonymous": false,
      "inputs": [
        {
          "indexed": true,
          "internalType": "address",
          "name": "sender",
          "type": "address"
        },
        {
          "indexed": true,
          "internalType": "address",
          "name": "receiver",
          "type": "address"
        },
        {
          "indexed": false,
          "internalType": "uint256",
          "name": "pickupTime",
          "type": "uint256"
        },
        {
          "indexed": false,
          "internalType": "uint256",
          "name": "distace",
          "type": "uint256"
        },
        {
          "indexed": false,
          "internalType": "uint256",
          "name": "price",
          "type": "uint256"
        }
      ],
      "name": "ShipmentCreated",
      "type": "event"
    },
    {
      "anonymous": false,
      "inputs": [
        {
          "indexed": true,
          "internalType": "address",
          "name": "sender",
          "type": "address"
        },
        {
          "indexed": true,
          "internalType": "address",
          "name": "receiver",
          "type": "address"
        },
        {
          "indexed": false,
          "internalType": "uint256",
          "name": "deliveryTime",
          "type": "uint256"
        }
      ],
      "name": "ShipmentDelivered",
      "type": "event"
    },
    {
      "anonymous": false,
      "inputs": [
        {
          "indexed": true,
          "internalType": "address",
          "name": "sender",
          "type": "address"
        },
        {
          "indexed": true,
          "internalType": "address",
          "name": "receiver",
          "type": "address"
        },
        {
          "indexed": false,
          "internalType": "uint256",
          "name": "pickupTime",
          "type": "uint256"
        }
      ],
      "name": "ShipmentInTransit",
      "type": "event"
    },
    {
      "anonymous": false,
      "inputs": [
        {
          "indexed": true,
          "internalType": "address",
          "name": "sender",
          "type": "address"
        },
        {
          "indexed": true,
          "internalType": "address",
          "name": "receiver",
          "type": "address"
        },
        {
          "indexed": false,
          "internalType": "uint256",
          "name": "amount",
          "type": "uint256"
        }
      ],
      "name": "ShipmentPaid",
      "type": "event"
    },
    {
      "inputs": [
        {
          "internalType": "address",
          "name": "_receiver",
          "type": "address"
        },
        {
          "internalType": "uint256",
          "name": "_pickupTime",
          "type": "uint256"
        },
        {
          "internalType": "uint256",
          "name": "_distance",
          "type": "uint256"
        },
        {
          "internalType": "uint256",
          "name": "_price",
          "type": "uint256"
        }
      ],
      "name": "CreateShipment",
      "outputs": [],
      "stateMutability": "payable",
      "type": "function"
    },
    {
      "inputs": [
        {
          "internalType": "address",
          "name": "_sender",
          "type": "address"
        },
        {
          "internalType": "address",
          "name": "_receiver",
          "type": "address"
        },
        {
          "internalType": "uint256",
          "name": "_index",
          "type": "uint256"
        }
      ],
      "name": "completeShipment",
      "outputs": [],
      "stateMutability": "nonpayable",
      "type": "function"
    },
    {
      "inputs": [],
      "name": "getAllTrasaction",
      "outputs": [
        {
          "components": [
            {
              "internalType": "address",
              "name": "sender",
              "type": "address"
            },
            {
              "internalType": "address",
              "name": "receiver",
              "type": "address"
            },
            {
              "internalType": "uint256",
              "name": "pickuptime",
              "type": "uint256"
            },
            {
              "internalType": "uint256",
              "name": "deliverytime",
              "type": "uint256"
            },
            {
              "internalType": "uint256",
              "name": "distance",
              "type": "uint256"
            },
            {
              "internalType": "uint256",
              "name": "price",
              "type": "uint256"
            },
            {
              "internalType": "enum Tracking.ShipmentStatus",
              "name": "status",
              "type": "uint8"
            },
            {
              "internalType": "bool",
              "name": "isPaid",
              "type": "bool"
            }
          ],
          "internalType": "struct Tracking.TypeShipment[]",
          "name": "",
          "type": "tuple[]"
        }
      ],
      "stateMutability": "view",
      "type": "function"
    },
    {
      "inputs": [
        {
          "internalType": "address",
          "name": "_sender",
          "type": "address"
        },
        {
          "internalType": "uint256",
          "name": "_index",
          "type": "uint256"
        }
      ],
      "name": "getShipment",
      "outputs": [
        {
          "components": [
            {
              "internalType": "address",
              "name": "sender",
              "type": "address"
            },
            {
              "internalType": "address",
              "name": "receiver",
              "type": "address"
            },
            {
              "internalType": "uint256",
              "name": "pickuptime",
              "type": "uint256"
            },
            {
              "internalType": "uint256",
              "name": "deliverytime",
              "type": "uint256"
            },
            {
              "internalType": "uint256",
              "name": "distance",
              "type": "uint256"
            },
            {
              "internalType": "uint256",
              "name": "price",
              "type": "uint256"
            },
            {
              "internalType": "enum Tracking.ShipmentStatus",
              "name": "status",
              "type": "uint8"
            },
            {
              "internalType": "bool",
              "name": "isPaid",
              "type": "bool"
            }
          ],
          "internalType": "struct Tracking.Shipment",
          "name": "",
          "type": "tuple"
        }
      ],
      "stateMutability": "view",
      "type": "function"
    },
    {
      "inputs": [
        {
          "internalType": "address",
          "name": "_sender",
          "type": "address"
        }
      ],
      "name": "getShipmentCount",
      "outputs": [
        {
          "internalType": "uint256",
          "name": "",
          "type": "uint256"
        }
      ],
      "stateMutability": "view",
      "type": "function"
    },
    {
      "inputs": [],
      "name": "shipmentCount",
      "outputs": [
        {
          "internalType": "uint256",
          "name": "",
          "type": "uint256"
        }
      ],
      "stateMutability": "view",
      "type": "function"
    },
    {
      "inputs": [
        {
          "internalType": "address",
          "name": "",
          "type": "address"
        },
        {
          "internalType": "uint256",
          "name": "",
          "type": "uint256"
        }
      ],
      "name": "shipments",
      "outputs": [
        {
          "internalType": "address",
          "name": "sender",
          "type": "address"
        },
        {
          "internalType": "address",
          "name": "receiver",
          "type": "address"
        },
        {
          "internalType": "uint256",
          "name": "pickuptime",
          "type": "uint256"
        },
        {
          "internalType": "uint256",
          "name": "deliverytime",
          "type": "uint256"
        },
        {
          "internalType": "uint256",
          "name": "distance",
          "type": "uint256"
        },
        {
          "internalType": "uint256",
          "name": "price",
          "type": "uint256"
        },
        {
          "internalType": "enum Tracking.ShipmentStatus",
          "name": "status",
          "type": "uint8"
        },
        {
          "internalType": "bool",
          "name": "isPaid",
          "type": "bool"
        }
      ],
      "stateMutability": "view",
      "type": "function"
    },
    {
      "inputs": [
        {
          "internalType": "address",
          "name": "_sender",
          "type": "address"
        },
        {
          "internalType": "address",
          "name": "_receiver",
          "type": "address"
        },
        {
          "internalType": "uint256",
          "name": "_index",
          "type": "uint256"
        }
      ],
      "name": "startShipment",
      "outputs": [],
      "stateMutability": "nonpayable",
      "type": "function"
    }
  ],
  "bytecode": "0x608060405234801561001057600080fd5b506000600181905550611a3d806100286000396000f3fe60806040526004361061007b5760003560e01c80637ff5265d1161004e5780637ff5265d146101345780638365da541461015d578063aace20b71461019a578063b7dfd93d146101c55761007b565b8063179a878c1461008057806346566d1b146100a95780635667e02f146100d4578063777639af14610118575b600080fd5b34801561008c57600080fd5b506100a760048036038101906100a291906111f9565b610202565b005b3480156100b557600080fd5b506100be6105d6565b6040516100cb919061144e565b60405180910390f35b3480156100e057600080fd5b506100fb60048036038101906100f69190611470565b610760565b60405161010f9897969594939291906114ec565b60405180910390f35b610132600480360381019061012d919061156a565b61081f565b005b34801561014057600080fd5b5061015b600480360381019061015691906111f9565b610c8a565b005b34801561016957600080fd5b50610184600480360381019061017f9190611470565b610ee6565b6040516101919190611673565b60405180910390f35b3480156101a657600080fd5b506101af61108a565b6040516101bc919061168f565b60405180910390f35b3480156101d157600080fd5b506101ec60048036038101906101e791906116aa565b611090565b6040516101f9919061168f565b60405180910390f35b60008060008573ffffffffffffffffffffffffffffffffffffffff1673ffffffffffffffffffffffffffffffffffffffff1681526020019081526020016000208281548110610254576102536116d7565b5b9060005260206000209060070201905060006002838154811061027a576102796116d7565b5b906000526020600020906007020190506001600281111561029e5761029d611296565b5b8260060160009054906101000a900460ff1660028111156102c2576102c1611296565b5b14610302576040517f08c379a00000000000000000000000000000000000000000000000000000000081526004016102f990611763565b60405180910390fd5b8373ffffffffffffffffffffffffffffffffffffffff168260010160009054906101000a900473ffffffffffffffffffffffffffffffffffffffff1673ffffffffffffffffffffffffffffffffffffffff1614610394576040517f08c379a000000000000000000000000000000000000000000000000000000000815260040161038b906117cf565b60405180910390fd5b8160060160019054906101000a900460ff16156103e6576040517f08c379a00000000000000000000000000000000000000000000000000000000081526004016103dd9061183b565b60405180910390fd5b60028260060160006101000a81548160ff0219169083600281111561040e5761040d611296565b5b021790555060028160060160006101000a81548160ff0219169083600281111561043b5761043a611296565b5b02179055504281600301819055504282600301819055506000826005015490508260000160009054906101000a900473ffffffffffffffffffffffffffffffffffffffff1673ffffffffffffffffffffffffffffffffffffffff166108fc829081150290604051600060405180830381858888f193505050501580156104c5573d6000803e3d6000fd5b5060018360060160016101000a81548160ff02191690831515021790555060018260060160016101000a81548160ff0219169083151502179055508473ffffffffffffffffffffffffffffffffffffffff168673ffffffffffffffffffffffffffffffffffffffff167f3746ccceb54f44c9b0ee0120e596168d07ec9f6ca303cfdd9810d3b2e2686a2e8560030154604051610561919061168f565b60405180910390a38473ffffffffffffffffffffffffffffffffffffffff168673ffffffffffffffffffffffffffffffffffffffff167f2b6f2473aebafaf8d0889669490135928ec4454d2e29a103fd39693bbca6aef1836040516105c6919061168f565b60405180910390a3505050505050565b60606002805480602002602001604051908101604052809291908181526020016000905b828210156107575783829060005260206000209060070201604051806101000160405290816000820160009054906101000a900473ffffffffffffffffffffffffffffffffffffffff1673ffffffffffffffffffffffffffffffffffffffff1673ffffffffffffffffffffffffffffffffffffffff1681526020016001820160009054906101000a900473ffffffffffffffffffffffffffffffffffffffff1673ffffffffffffffffffffffffffffffffffffffff1673ffffffffffffffffffffffffffffffffffffffff168152602001600282015481526020016003820154815260200160048201548152602001600582015481526020016006820160009054906101000a900460ff16600281111561071757610716611296565b5b600281111561072957610728611296565b5b81526020016006820160019054906101000a900460ff161515151581525050815260200190600101906105fa565b50505050905090565b6000602052816000526040600020818154811061077c57600080fd5b9060005260206000209060070201600091509150508060000160009054906101000a900473ffffffffffffffffffffffffffffffffffffffff16908060010160009054906101000a900473ffffffffffffffffffffffffffffffffffffffff16908060020154908060030154908060040154908060050154908060060160009054906101000a900460ff16908060060160019054906101000a900460ff16905088565b803414610861576040517f08c379a0000000000000000000000000000000000000000000000000000000008152600401610858906118cd565b60405180910390fd5b60006040518061010001604052803373ffffffffffffffffffffffffffffffffffffffff1681526020018673ffffffffffffffffffffffffffffffffffffffff16815260200185815260200160008152602001848152602001838152602001600060028111156108d4576108d3611296565b5b81526020016000151581525090506000803373ffffffffffffffffffffffffffffffffffffffff1673ffffffffffffffffffffffffffffffffffffffff16815260200190815260200160002081908060018154018082558091505060019003906000526020600020906007020160009091909190915060008201518160000160006101000a81548173ffffffffffffffffffffffffffffffffffffffff021916908373ffffffffffffffffffffffffffffffffffffffff16021790555060208201518160010160006101000a81548173ffffffffffffffffffffffffffffffffffffffff021916908373ffffffffffffffffffffffffffffffffffffffff16021790555060408201518160020155606082015181600301556080820151816004015560a0820151816005015560c08201518160060160006101000a81548160ff02191690836002811115610a2b57610a2a611296565b5b021790555060e08201518160060160016101000a81548160ff021916908315150217905550505060016000815480929190610a659061191c565b919050555060026040518061010001604052803373ffffffffffffffffffffffffffffffffffffffff1681526020018773ffffffffffffffffffffffffffffffffffffffff1681526020018681526020016000815260200185815260200184815260200160006002811115610add57610adc611296565b5b815260200160001515815250908060018154018082558091505060019003906000526020600020906007020160009091909190915060008201518160000160006101000a81548173ffffffffffffffffffffffffffffffffffffffff021916908373ffffffffffffffffffffffffffffffffffffffff16021790555060208201518160010160006101000a81548173ffffffffffffffffffffffffffffffffffffffff021916908373ffffffffffffffffffffffffffffffffffffffff16021790555060408201518160020155606082015181600301556080820151816004015560a0820151816005015560c08201518160060160006101000a81548160ff02191690836002811115610bf357610bf2611296565b5b021790555060e08201518160060160016101000a81548160ff02191690831515021790555050508473ffffffffffffffffffffffffffffffffffffffff163373ffffffffffffffffffffffffffffffffffffffff167f5001b34ecf2db5b7bbeddcbbe761ec9ecadcc7638018b98ce3e24995b0e946b6868686604051610c7b93929190611964565b60405180910390a35050505050565b60008060008573ffffffffffffffffffffffffffffffffffffffff1673ffffffffffffffffffffffffffffffffffffffff1681526020019081526020016000208281548110610cdc57610cdb6116d7565b5b90600052602060002090600702019050600060028381548110610d0257610d016116d7565b5b9060005260206000209060070201905060006002811115610d2657610d25611296565b5b8260060160009054906101000a900460ff166002811115610d4a57610d49611296565b5b14610d8a576040517f08c379a0000000000000000000000000000000000000000000000000000000008152600401610d81906119e7565b60405180910390fd5b8373ffffffffffffffffffffffffffffffffffffffff168260010160009054906101000a900473ffffffffffffffffffffffffffffffffffffffff1673ffffffffffffffffffffffffffffffffffffffff1614610e1c576040517f08c379a0000000000000000000000000000000000000000000000000000000008152600401610e13906117cf565b60405180910390fd5b60018260060160006101000a81548160ff02191690836002811115610e4457610e43611296565b5b021790555060018160060160006101000a81548160ff02191690836002811115610e7157610e70611296565b5b02179055508373ffffffffffffffffffffffffffffffffffffffff168573ffffffffffffffffffffffffffffffffffffffff167faafab9f94340179ff9cefd29621e1772a4b8efab8023163838f1b0a8f6ce5df58460020154604051610ed7919061168f565b60405180910390a35050505050565b610eee6110db565b6000808473ffffffffffffffffffffffffffffffffffffffff1673ffffffffffffffffffffffffffffffffffffffff1681526020019081526020016000208281548110610f3e57610f3d6116d7565b5b9060005260206000209060070201604051806101000160405290816000820160009054906101000a900473ffffffffffffffffffffffffffffffffffffffff1673ffffffffffffffffffffffffffffffffffffffff1673ffffffffffffffffffffffffffffffffffffffff1681526020016001820160009054906101000a900473ffffffffffffffffffffffffffffffffffffffff1673ffffffffffffffffffffffffffffffffffffffff1673ffffffffffffffffffffffffffffffffffffffff168152602001600282015481526020016003820154815260200160048201548152602001600582015481526020016006820160009054906101000a900460ff16600281111561105157611050611296565b5b600281111561106357611062611296565b5b81526020016006820160019054906101000a900460ff161515151581525050905092915050565b60015481565b60008060008373ffffffffffffffffffffffffffffffffffffffff1673ffffffffffffffffffffffffffffffffffffffff168152602001908152602001600020805490509050919050565b604051806101000160405280600073ffffffffffffffffffffffffffffffffffffffff168152602001600073ffffffffffffffffffffffffffffffffffffffff168152602001600081526020016000815260200160008152602001600081526020016000600281111561115157611150611296565b5b81526020016000151581525090565b600080fd5b600073ffffffffffffffffffffffffffffffffffffffff82169050919050565b600061119082611165565b9050919050565b6111a081611185565b81146111ab57600080fd5b50565b6000813590506111bd81611197565b92915050565b6000819050919050565b6111d6816111c3565b81146111e157600080fd5b50565b6000813590506111f3816111cd565b92915050565b60008060006060848603121561121257611211611160565b5b6000611220868287016111ae565b9350506020611231868287016111ae565b9250506040611242868287016111e4565b9150509250925092565b600081519050919050565b600082825260208201905092915050565b6000819050602082019050919050565b61128181611185565b82525050565b611290816111c3565b82525050565b7f4e487b7100000000000000000000000000000000000000000000000000000000600052602160045260246000fd5b600381106112d6576112d5611296565b5b50565b60008190506112e7826112c5565b919050565b60006112f7826112d9565b9050919050565b611307816112ec565b82525050565b60008115159050919050565b6113228161130d565b82525050565b6101008201600082015161133f6000850182611278565b5060208201516113526020850182611278565b5060408201516113656040850182611287565b5060608201516113786060850182611287565b50608082015161138b6080850182611287565b5060a082015161139e60a0850182611287565b5060c08201516113b160c08501826112fe565b5060e08201516113c460e0850182611319565b50505050565b60006113d68383611328565b6101008301905092915050565b6000602082019050919050565b60006113fb8261124c565b6114058185611257565b935061141083611268565b8060005b8381101561144157815161142888826113ca565b9750611433836113e3565b925050600181019050611414565b5085935050505092915050565b6000602082019050818103600083015261146881846113f0565b905092915050565b6000806040838503121561148757611486611160565b5b6000611495858286016111ae565b92505060206114a6858286016111e4565b9150509250929050565b6114b981611185565b82525050565b6114c8816111c3565b82525050565b6114d7816112ec565b82525050565b6114e68161130d565b82525050565b600061010082019050611502600083018b6114b0565b61150f602083018a6114b0565b61151c60408301896114bf565b61152960608301886114bf565b61153660808301876114bf565b61154360a08301866114bf565b61155060c08301856114ce565b61155d60e08301846114dd565b9998505050505050505050565b6000806000806080858703121561158457611583611160565b5b6000611592878288016111ae565b94505060206115a3878288016111e4565b93505060406115b4878288016111e4565b92505060606115c5878288016111e4565b91505092959194509250565b610100820160008201516115e86000850182611278565b5060208201516115fb6020850182611278565b50604082015161160e6040850182611287565b5060608201516116216060850182611287565b5060808201516116346080850182611287565b5060a082015161164760a0850182611287565b5060c082015161165a60c08501826112fe565b5060e082015161166d60e0850182611319565b50505050565b60006101008201905061168960008301846115d1565b92915050565b60006020820190506116a460008301846114bf565b92915050565b6000602082840312156116c0576116bf611160565b5b60006116ce848285016111ae565b91505092915050565b7f4e487b7100000000000000000000000000000000000000000000000000000000600052603260045260246000fd5b600082825260208201905092915050565b7f536869706d656e74206e6f7420696e207472616e736974000000000000000000600082015250565b600061174d601783611706565b915061175882611717565b602082019050919050565b6000602082019050818103600083015261177c81611740565b9050919050565b7f20696e76616c6964207265636569766572000000000000000000000000000000600082015250565b60006117b9601183611706565b91506117c482611783565b602082019050919050565b600060208201905081810360008301526117e8816117ac565b9050919050565b7f536869706d656e7420616c726561647920706169640000000000000000000000600082015250565b6000611825601583611706565b9150611830826117ef565b602082019050919050565b6000602082019050818103600083015261185481611818565b9050919050565b7f5061796d656e742076616c7565206d757374206d61746368207468652070726960008201527f6365000000000000000000000000000000000000000000000000000000000000602082015250565b60006118b7602283611706565b91506118c28261185b565b604082019050919050565b600060208201905081810360008301526118e6816118aa565b9050919050565b7f4e487b7100000000000000000000000000000000000000000000000000000000600052601160045260246000fd5b6000611927826111c3565b91507fffffffffffffffffffffffffffffffffffffffffffffffffffffffffffffffff8203611959576119586118ed565b5b600182019050919050565b600060608201905061197960008301866114bf565b61198660208301856114bf565b61199360408301846114bf565b949350505050565b7f536869706d656e7420616c726561647920696e207472616e7369740000000000600082015250565b60006119d1601b83611706565b91506119dc8261199b565b602082019050919050565b60006020820190508181036000830152611a00816119c4565b905091905056fea26469706673582212205f05f4529a309648b61a483562514365c4baa63c91a5f967fd9c5b9abfc790c764736f6c63430008120033",
  "linkReferences": {},
  "deployedLinkReferences": {}
}